{
  "_format": "hh-sol-artifact-1",
  "contractName": "MtChickenNFT",
  "sourceName": "contracts/MtChickenNFT.sol",
  "abi": [
    {
      "inputs": [],
      "stateMutability": "nonpayable",
      "type": "constructor"
    },
    {
      "anonymous": false,
      "inputs": [
        {
          "indexed": true,
          "internalType": "address",
          "name": "owner",
          "type": "address"
        },
        {
          "indexed": true,
          "internalType": "address",
          "name": "approved",
          "type": "address"
        },
        {
          "indexed": true,
          "internalType": "uint256",
          "name": "tokenId",
          "type": "uint256"
        }
      ],
      "name": "Approval",
      "type": "event"
    },
    {
      "anonymous": false,
      "inputs": [
        {
          "indexed": true,
          "internalType": "address",
          "name": "owner",
          "type": "address"
        },
        {
          "indexed": true,
          "internalType": "address",
          "name": "operator",
          "type": "address"
        },
        {
          "indexed": false,
          "internalType": "bool",
          "name": "approved",
          "type": "bool"
        }
      ],
      "name": "ApprovalForAll",
      "type": "event"
    },
    {
      "anonymous": false,
      "inputs": [
        {
          "indexed": true,
          "internalType": "address",
          "name": "previousOwner",
          "type": "address"
        },
        {
          "indexed": true,
          "internalType": "address",
          "name": "newOwner",
          "type": "address"
        }
      ],
      "name": "OwnershipTransferred",
      "type": "event"
    },
    {
      "anonymous": false,
      "inputs": [
        {
          "indexed": true,
          "internalType": "address",
          "name": "from",
          "type": "address"
        },
        {
          "indexed": true,
          "internalType": "address",
          "name": "to",
          "type": "address"
        },
        {
          "indexed": true,
          "internalType": "uint256",
          "name": "tokenId",
          "type": "uint256"
        }
      ],
      "name": "Transfer",
      "type": "event"
    },
    {
      "inputs": [
        {
          "internalType": "bytes",
          "name": "body",
          "type": "bytes"
        }
      ],
      "name": "appendSvgBody",
      "outputs": [],
      "stateMutability": "nonpayable",
      "type": "function"
    },
    {
      "inputs": [
        {
          "internalType": "address",
          "name": "to",
          "type": "address"
        },
        {
          "internalType": "uint256",
          "name": "tokenId",
          "type": "uint256"
        }
      ],
      "name": "approve",
      "outputs": [],
      "stateMutability": "nonpayable",
      "type": "function"
    },
    {
      "inputs": [
        {
          "internalType": "address",
          "name": "owner",
          "type": "address"
        }
      ],
      "name": "balanceOf",
      "outputs": [
        {
          "internalType": "uint256",
          "name": "",
          "type": "uint256"
        }
      ],
      "stateMutability": "view",
      "type": "function"
    },
    {
      "inputs": [],
      "name": "clearSvgBody",
      "outputs": [],
      "stateMutability": "nonpayable",
      "type": "function"
    },
    {
      "inputs": [
        {
          "internalType": "uint256",
          "name": "tokenId",
          "type": "uint256"
        }
      ],
      "name": "exists",
      "outputs": [
        {
          "internalType": "bool",
          "name": "",
          "type": "bool"
        }
      ],
      "stateMutability": "view",
      "type": "function"
    },
    {
      "inputs": [],
      "name": "freeze",
      "outputs": [],
      "stateMutability": "nonpayable",
      "type": "function"
    },
    {
      "inputs": [],
      "name": "frozen",
      "outputs": [
        {
          "internalType": "bool",
          "name": "",
          "type": "bool"
        }
      ],
      "stateMutability": "view",
      "type": "function"
    },
    {
      "inputs": [
        {
          "internalType": "uint256",
          "name": "tokenId",
          "type": "uint256"
        }
      ],
      "name": "getApproved",
      "outputs": [
        {
          "internalType": "address",
          "name": "",
          "type": "address"
        }
      ],
      "stateMutability": "view",
      "type": "function"
    },
    {
      "inputs": [
        {
          "internalType": "address",
          "name": "owner",
          "type": "address"
        },
        {
          "internalType": "address",
          "name": "operator",
          "type": "address"
        }
      ],
      "name": "isApprovedForAll",
      "outputs": [
        {
          "internalType": "bool",
          "name": "",
          "type": "bool"
        }
      ],
      "stateMutability": "view",
      "type": "function"
    },
    {
      "inputs": [
        {
          "internalType": "uint24[]",
          "name": "colors",
          "type": "uint24[]"
        },
        {
          "internalType": "bool[]",
          "name": "flags",
          "type": "bool[]"
        }
      ],
      "name": "mint",
      "outputs": [],
      "stateMutability": "nonpayable",
      "type": "function"
    },
    {
      "inputs": [],
      "name": "name",
      "outputs": [
        {
          "internalType": "string",
          "name": "",
          "type": "string"
        }
      ],
      "stateMutability": "view",
      "type": "function"
    },
    {
      "inputs": [],
      "name": "nextTokenId",
      "outputs": [
        {
          "internalType": "uint256",
          "name": "",
          "type": "uint256"
        }
      ],
      "stateMutability": "view",
      "type": "function"
    },
    {
      "inputs": [],
      "name": "owner",
      "outputs": [
        {
          "internalType": "address",
          "name": "",
          "type": "address"
        }
      ],
      "stateMutability": "view",
      "type": "function"
    },
    {
      "inputs": [
        {
          "internalType": "uint256",
          "name": "tokenId",
          "type": "uint256"
        }
      ],
      "name": "ownerOf",
      "outputs": [
        {
          "internalType": "address",
          "name": "",
          "type": "address"
        }
      ],
      "stateMutability": "view",
      "type": "function"
    },
    {
      "inputs": [],
      "name": "renounceOwnership",
      "outputs": [],
      "stateMutability": "nonpayable",
      "type": "function"
    },
    {
      "inputs": [
        {
          "internalType": "address",
          "name": "from",
          "type": "address"
        },
        {
          "internalType": "address",
          "name": "to",
          "type": "address"
        },
        {
          "internalType": "uint256",
          "name": "tokenId",
          "type": "uint256"
        }
      ],
      "name": "safeTransferFrom",
      "outputs": [],
      "stateMutability": "nonpayable",
      "type": "function"
    },
    {
      "inputs": [
        {
          "internalType": "address",
          "name": "from",
          "type": "address"
        },
        {
          "internalType": "address",
          "name": "to",
          "type": "address"
        },
        {
          "internalType": "uint256",
          "name": "tokenId",
          "type": "uint256"
        },
        {
          "internalType": "bytes",
          "name": "_data",
          "type": "bytes"
        }
      ],
      "name": "safeTransferFrom",
      "outputs": [],
      "stateMutability": "nonpayable",
      "type": "function"
    },
    {
      "inputs": [
        {
          "internalType": "address",
          "name": "operator",
          "type": "address"
        },
        {
          "internalType": "bool",
          "name": "approved",
          "type": "bool"
        }
      ],
      "name": "setApprovalForAll",
      "outputs": [],
      "stateMutability": "nonpayable",
      "type": "function"
    },
    {
      "inputs": [
        {
          "internalType": "string[]",
          "name": "_colorClassNames",
          "type": "string[]"
        },
        {
          "internalType": "string[]",
          "name": "_flagClassNames",
          "type": "string[]"
        }
      ],
      "name": "setClassNames",
      "outputs": [],
      "stateMutability": "nonpayable",
      "type": "function"
    },
    {
      "inputs": [
        {
          "internalType": "bytes",
          "name": "head",
          "type": "bytes"
        }
      ],
      "name": "setSvgHead",
      "outputs": [],
      "stateMutability": "nonpayable",
      "type": "function"
    },
    {
      "inputs": [
        {
          "internalType": "bytes4",
          "name": "interfaceId",
          "type": "bytes4"
        }
      ],
      "name": "supportsInterface",
      "outputs": [
        {
          "internalType": "bool",
          "name": "",
          "type": "bool"
        }
      ],
      "stateMutability": "view",
      "type": "function"
    },
    {
      "inputs": [],
      "name": "symbol",
      "outputs": [
        {
          "internalType": "string",
          "name": "",
          "type": "string"
        }
      ],
      "stateMutability": "view",
      "type": "function"
    },
    {
      "inputs": [
        {
          "internalType": "uint256",
          "name": "index",
          "type": "uint256"
        }
      ],
      "name": "tokenByIndex",
      "outputs": [
        {
          "internalType": "uint256",
          "name": "",
          "type": "uint256"
        }
      ],
      "stateMutability": "view",
      "type": "function"
    },
    {
      "inputs": [
        {
          "internalType": "address",
          "name": "owner",
          "type": "address"
        },
        {
          "internalType": "uint256",
          "name": "index",
          "type": "uint256"
        }
      ],
      "name": "tokenOfOwnerByIndex",
      "outputs": [
        {
          "internalType": "uint256",
          "name": "",
          "type": "uint256"
        }
      ],
      "stateMutability": "view",
      "type": "function"
    },
    {
      "inputs": [
        {
          "internalType": "uint256",
          "name": "tokenId",
          "type": "uint256"
        }
      ],
      "name": "tokenURI",
      "outputs": [
        {
          "internalType": "string",
          "name": "",
          "type": "string"
        }
      ],
      "stateMutability": "view",
      "type": "function"
    },
    {
      "inputs": [],
      "name": "totalSupply",
      "outputs": [
        {
          "internalType": "uint256",
          "name": "",
          "type": "uint256"
        }
      ],
      "stateMutability": "view",
      "type": "function"
    },
    {
      "inputs": [
        {
          "internalType": "address",
          "name": "from",
          "type": "address"
        },
        {
          "internalType": "address",
          "name": "to",
          "type": "address"
        },
        {
          "internalType": "uint256",
          "name": "tokenId",
          "type": "uint256"
        }
      ],
      "name": "transferFrom",
      "outputs": [],
      "stateMutability": "nonpayable",
      "type": "function"
    },
    {
      "inputs": [
        {
          "internalType": "address",
          "name": "newOwner",
          "type": "address"
        }
      ],
      "name": "transferOwnership",
      "outputs": [],
      "stateMutability": "nonpayable",
      "type": "function"
    }
  ],
  "bytecode": "0x608060405260016011556000601260006101000a81548160ff0219169083151502179055503480156200003157600080fd5b506040518060400160405280600981526020017f4d74436869636b656e00000000000000000000000000000000000000000000008152506040518060400160405280600981526020017f4d54434849434b454e00000000000000000000000000000000000000000000008152508160009080519060200190620000b6929190620001c6565b508060019080519060200190620000cf929190620001c6565b505050620000f2620000e6620000f860201b60201c565b6200010060201b60201c565b620002db565b600033905090565b6000600a60009054906101000a900473ffffffffffffffffffffffffffffffffffffffff16905081600a60006101000a81548173ffffffffffffffffffffffffffffffffffffffff021916908373ffffffffffffffffffffffffffffffffffffffff1602179055508173ffffffffffffffffffffffffffffffffffffffff168173ffffffffffffffffffffffffffffffffffffffff167f8be0079c531659141344cd1fd0a4f28419497f9722a3daafe3b4186f6b6457e060405160405180910390a35050565b828054620001d490620002a5565b90600052602060002090601f016020900481019282620001f8576000855562000244565b82601f106200021357805160ff191683800117855562000244565b8280016001018555821562000244579182015b828111156200024357825182559160200191906001019062000226565b5b50905062000253919062000257565b5090565b5b808211156200027257600081600090555060010162000258565b5090565b7f4e487b7100000000000000000000000000000000000000000000000000000000600052602260045260246000fd5b60006002820490506001821680620002be57607f821691505b60208210811415620002d557620002d462000276565b5b50919050565b61538f80620002eb6000396000f3fe608060405234801561001057600080fd5b50600436106101c45760003560e01c80636352211e116100f9578063a22cb46511610097578063e985e9c511610071578063e985e9c5146104df578063f2fde38b1461050f578063f41abfe91461052b578063fd84e70a14610547576101c4565b8063a22cb46514610477578063b88d4fde14610493578063c87b56dd146104af576101c4565b806375794a3c116100d357806375794a3c146104015780637717885f1461041f5780638da5cb5b1461043b57806395d89b4114610459576101c4565b80636352211e1461039757806370a08231146103c7578063715018a6146103f7576101c4565b80632f745c59116101665780634f6ccce7116101405780634f6ccce71461033757806350b0811214610367578063547722721461038357806362a5af3b1461038d576101c4565b80632f745c59146102bb57806342842e0e146102eb5780634f558e7914610307576101c4565b8063081812fc116101a2578063081812fc14610235578063095ea7b31461026557806318160ddd1461028157806323b872dd1461029f576101c4565b806301ffc9a7146101c9578063054f7d9c146101f957806306fdde0314610217575b600080fd5b6101e360048036038101906101de91906132b2565b610563565b6040516101f091906132fa565b60405180910390f35b6102016105dd565b60405161020e91906132fa565b60405180910390f35b61021f6105f0565b60405161022c91906133ae565b60405180910390f35b61024f600480360381019061024a9190613406565b610682565b60405161025c9190613474565b60405180910390f35b61027f600480360381019061027a91906134bb565b610707565b005b61028961081f565b604051610296919061350a565b60405180910390f35b6102b960048036038101906102b49190613525565b61082c565b005b6102d560048036038101906102d091906134bb565b61088c565b6040516102e2919061350a565b60405180910390f35b61030560048036038101906103009190613525565b610931565b005b610321600480360381019061031c9190613406565b610951565b60405161032e91906132fa565b60405180910390f35b610351600480360381019061034c9190613406565b610963565b60405161035e919061350a565b60405180910390f35b610381600480360381019061037c9190613793565b6109d4565b005b61038b610ad2565b005b610395610bc6565b005b6103b160048036038101906103ac9190613406565b610c5f565b6040516103be9190613474565b60405180910390f35b6103e160048036038101906103dc919061380b565b610d11565b6040516103ee919061350a565b60405180910390f35b6103ff610dc9565b005b610409610e51565b604051610416919061350a565b60405180910390f35b610439600480360381019061043491906138e9565b610e57565b005b61044361106a565b6040516104509190613474565b60405180910390f35b610461611094565b60405161046e91906133ae565b60405180910390f35b610491600480360381019061048c9190613996565b611126565b005b6104ad60048036038101906104a89190613a77565b61113c565b005b6104c960048036038101906104c49190613406565b61119e565b6040516104d691906133ae565b60405180910390f35b6104f960048036038101906104f49190613afa565b61121f565b60405161050691906132fa565b60405180910390f35b6105296004803603810190610524919061380b565b6112b3565b005b61054560048036038101906105409190613b90565b6113ab565b005b610561600480360381019061055c9190613b90565b61148d565b005b60007f780e9d63000000000000000000000000000000000000000000000000000000007bffffffffffffffffffffffffffffffffffffffffffffffffffffffff1916827bffffffffffffffffffffffffffffffffffffffffffffffffffffffff191614806105d657506105d582611598565b5b9050919050565b601260009054906101000a900460ff1681565b6060600080546105ff90613c0c565b80601f016020809104026020016040519081016040528092919081815260200182805461062b90613c0c565b80156106785780601f1061064d57610100808354040283529160200191610678565b820191906000526020600020905b81548152906001019060200180831161065b57829003601f168201915b5050505050905090565b600061068d8261167a565b6106cc576040517f08c379a00000000000000000000000000000000000000000000000000000000081526004016106c390613cb0565b60405180910390fd5b6004600083815260200190815260200160002060009054906101000a900473ffffffffffffffffffffffffffffffffffffffff169050919050565b600061071282610c5f565b90508073ffffffffffffffffffffffffffffffffffffffff168373ffffffffffffffffffffffffffffffffffffffff161415610783576040517f08c379a000000000000000000000000000000000000000000000000000000000815260040161077a90613d42565b60405180910390fd5b8073ffffffffffffffffffffffffffffffffffffffff166107a26116e6565b73ffffffffffffffffffffffffffffffffffffffff1614806107d157506107d0816107cb6116e6565b61121f565b5b610810576040517f08c379a000000000000000000000000000000000000000000000000000000000815260040161080790613dd4565b60405180910390fd5b61081a83836116ee565b505050565b6000600880549050905090565b61083d6108376116e6565b826117a7565b61087c576040517f08c379a000000000000000000000000000000000000000000000000000000000815260040161087390613e66565b60405180910390fd5b610887838383611885565b505050565b600061089783610d11565b82106108d8576040517f08c379a00000000000000000000000000000000000000000000000000000000081526004016108cf90613ef8565b60405180910390fd5b600660008473ffffffffffffffffffffffffffffffffffffffff1673ffffffffffffffffffffffffffffffffffffffff168152602001908152602001600020600083815260200190815260200160002054905092915050565b61094c8383836040518060200160405280600081525061113c565b505050565b600061095c8261167a565b9050919050565b600061096d61081f565b82106109ae576040517f08c379a00000000000000000000000000000000000000000000000000000000081526004016109a590613f8a565b60405180910390fd5b600882815481106109c2576109c1613faa565b5b90600052602060002001549050919050565b6109dc6116e6565b73ffffffffffffffffffffffffffffffffffffffff166109fa61106a565b73ffffffffffffffffffffffffffffffffffffffff1614610a50576040517f08c379a0000000000000000000000000000000000000000000000000000000008152600401610a4790614025565b60405180910390fd5b601260009054906101000a900460ff1615610aa0576040517f08c379a0000000000000000000000000000000000000000000000000000000008152600401610a9790614091565b60405180910390fd5b81600d9080519060200190610ab6929190612dda565b5080600e9080519060200190610acd929190612dda565b505050565b610ada6116e6565b73ffffffffffffffffffffffffffffffffffffffff16610af861106a565b73ffffffffffffffffffffffffffffffffffffffff1614610b4e576040517f08c379a0000000000000000000000000000000000000000000000000000000008152600401610b4590614025565b60405180910390fd5b601260009054906101000a900460ff1615610b9e576040517f08c379a0000000000000000000000000000000000000000000000000000000008152600401610b9590614091565b60405180910390fd5b60405180602001604052806000815250600c9080519060200190610bc3929190612e3a565b50565b610bce6116e6565b73ffffffffffffffffffffffffffffffffffffffff16610bec61106a565b73ffffffffffffffffffffffffffffffffffffffff1614610c42576040517f08c379a0000000000000000000000000000000000000000000000000000000008152600401610c3990614025565b60405180910390fd5b6001601260006101000a81548160ff021916908315150217905550565b6000806002600084815260200190815260200160002060009054906101000a900473ffffffffffffffffffffffffffffffffffffffff169050600073ffffffffffffffffffffffffffffffffffffffff168173ffffffffffffffffffffffffffffffffffffffff161415610d08576040517f08c379a0000000000000000000000000000000000000000000000000000000008152600401610cff90614123565b60405180910390fd5b80915050919050565b60008073ffffffffffffffffffffffffffffffffffffffff168273ffffffffffffffffffffffffffffffffffffffff161415610d82576040517f08c379a0000000000000000000000000000000000000000000000000000000008152600401610d79906141b5565b60405180910390fd5b600360008373ffffffffffffffffffffffffffffffffffffffff1673ffffffffffffffffffffffffffffffffffffffff168152602001908152602001600020549050919050565b610dd16116e6565b73ffffffffffffffffffffffffffffffffffffffff16610def61106a565b73ffffffffffffffffffffffffffffffffffffffff1614610e45576040517f08c379a0000000000000000000000000000000000000000000000000000000008152600401610e3c90614025565b60405180910390fd5b610e4f6000611aec565b565b60115481565b600d805490508484905014610ea1576040517f08c379a0000000000000000000000000000000000000000000000000000000008152600401610e9890614221565b60405180910390fd5b600e805490508282905014610eeb576040517f08c379a0000000000000000000000000000000000000000000000000000000008152600401610ee29061428d565b60405180910390fd5b6000601154905060116000815480929190610f05906142dc565b91905055506040518060400160405280868680806020026020016040519081016040528093929190818152602001838360200280828437600081840152601f19601f820116905080830192505050505050508152602001848480806020026020016040519081016040528093929190818152602001838360200280828437600081840152601f19601f82011690508083019250505050505050815250600f60008381526020019081526020016000206000820151816000019080519060200190610fd0929190612ec0565b506020820151816001019080519060200190610fed929190612f6d565b50905050610ffa81611bb2565b6010600083815260200190815260200160002060008201518160000160006101000a81548160ff021916908360ff16021790555060208201518160000160016101000a81548160ff021916908360ff16021790555090505061106361105d6116e6565b82611c4f565b5050505050565b6000600a60009054906101000a900473ffffffffffffffffffffffffffffffffffffffff16905090565b6060600180546110a390613c0c565b80601f01602080910402602001604051908101604052809291908181526020018280546110cf90613c0c565b801561111c5780601f106110f15761010080835404028352916020019161111c565b820191906000526020600020905b8154815290600101906020018083116110ff57829003601f168201915b5050505050905090565b6111386111316116e6565b8383611c6d565b5050565b61114d6111476116e6565b836117a7565b61118c576040517f08c379a000000000000000000000000000000000000000000000000000000000815260040161118390613e66565b60405180910390fd5b61119884848484611dda565b50505050565b60606111a98261167a565b6111e8576040517f08c379a00000000000000000000000000000000000000000000000000000000081526004016111df90614371565b60405180910390fd5b6111f96111f483611e36565b61202f565b6040516020016112099190614419565b6040516020818303038152906040529050919050565b6000600560008473ffffffffffffffffffffffffffffffffffffffff1673ffffffffffffffffffffffffffffffffffffffff16815260200190815260200160002060008373ffffffffffffffffffffffffffffffffffffffff1673ffffffffffffffffffffffffffffffffffffffff16815260200190815260200160002060009054906101000a900460ff16905092915050565b6112bb6116e6565b73ffffffffffffffffffffffffffffffffffffffff166112d961106a565b73ffffffffffffffffffffffffffffffffffffffff161461132f576040517f08c379a000000000000000000000000000000000000000000000000000000000815260040161132690614025565b60405180910390fd5b600073ffffffffffffffffffffffffffffffffffffffff168173ffffffffffffffffffffffffffffffffffffffff16141561139f576040517f08c379a0000000000000000000000000000000000000000000000000000000008152600401611396906144ad565b60405180910390fd5b6113a881611aec565b50565b6113b36116e6565b73ffffffffffffffffffffffffffffffffffffffff166113d161106a565b73ffffffffffffffffffffffffffffffffffffffff1614611427576040517f08c379a000000000000000000000000000000000000000000000000000000000815260040161141e90614025565b60405180910390fd5b601260009054906101000a900460ff1615611477576040517f08c379a000000000000000000000000000000000000000000000000000000000815260040161146e90614091565b60405180910390fd5b8181600b9190611488929190613013565b505050565b6114956116e6565b73ffffffffffffffffffffffffffffffffffffffff166114b361106a565b73ffffffffffffffffffffffffffffffffffffffff1614611509576040517f08c379a000000000000000000000000000000000000000000000000000000000815260040161150090614025565b60405180910390fd5b601260009054906101000a900460ff1615611559576040517f08c379a000000000000000000000000000000000000000000000000000000000815260040161155090614091565b60405180910390fd5b600c828260405160200161156f93929190614591565b604051602081830303815290604052600c9080519060200190611593929190613099565b505050565b60007f80ac58cd000000000000000000000000000000000000000000000000000000007bffffffffffffffffffffffffffffffffffffffffffffffffffffffff1916827bffffffffffffffffffffffffffffffffffffffffffffffffffffffff1916148061166357507f5b5e139f000000000000000000000000000000000000000000000000000000007bffffffffffffffffffffffffffffffffffffffffffffffffffffffff1916827bffffffffffffffffffffffffffffffffffffffffffffffffffffffff1916145b80611673575061167282612193565b5b9050919050565b60008073ffffffffffffffffffffffffffffffffffffffff166002600084815260200190815260200160002060009054906101000a900473ffffffffffffffffffffffffffffffffffffffff1673ffffffffffffffffffffffffffffffffffffffff1614159050919050565b600033905090565b816004600083815260200190815260200160002060006101000a81548173ffffffffffffffffffffffffffffffffffffffff021916908373ffffffffffffffffffffffffffffffffffffffff160217905550808273ffffffffffffffffffffffffffffffffffffffff1661176183610c5f565b73ffffffffffffffffffffffffffffffffffffffff167f8c5be1e5ebec7d5bd14f71427d1e84f3dd0314c0f7b2291e5b200ac8c7c3b92560405160405180910390a45050565b60006117b28261167a565b6117f1576040517f08c379a00000000000000000000000000000000000000000000000000000000081526004016117e890614629565b60405180910390fd5b60006117fc83610c5f565b90508073ffffffffffffffffffffffffffffffffffffffff168473ffffffffffffffffffffffffffffffffffffffff16148061186b57508373ffffffffffffffffffffffffffffffffffffffff1661185384610682565b73ffffffffffffffffffffffffffffffffffffffff16145b8061187c575061187b818561121f565b5b91505092915050565b8273ffffffffffffffffffffffffffffffffffffffff166118a582610c5f565b73ffffffffffffffffffffffffffffffffffffffff16146118fb576040517f08c379a00000000000000000000000000000000000000000000000000000000081526004016118f2906146bb565b60405180910390fd5b600073ffffffffffffffffffffffffffffffffffffffff168273ffffffffffffffffffffffffffffffffffffffff16141561196b576040517f08c379a00000000000000000000000000000000000000000000000000000000081526004016119629061474d565b60405180910390fd5b6119768383836121fd565b6119816000826116ee565b6001600360008573ffffffffffffffffffffffffffffffffffffffff1673ffffffffffffffffffffffffffffffffffffffff16815260200190815260200160002060008282546119d1919061476d565b925050819055506001600360008473ffffffffffffffffffffffffffffffffffffffff1673ffffffffffffffffffffffffffffffffffffffff1681526020019081526020016000206000828254611a2891906147a1565b92505081905550816002600083815260200190815260200160002060006101000a81548173ffffffffffffffffffffffffffffffffffffffff021916908373ffffffffffffffffffffffffffffffffffffffff160217905550808273ffffffffffffffffffffffffffffffffffffffff168473ffffffffffffffffffffffffffffffffffffffff167fddf252ad1be2c89b69c2b068fc378daa952ba7f163c4a11628f55a4df523b3ef60405160405180910390a4611ae7838383612311565b505050565b6000600a60009054906101000a900473ffffffffffffffffffffffffffffffffffffffff16905081600a60006101000a81548173ffffffffffffffffffffffffffffffffffffffff021916908373ffffffffffffffffffffffffffffffffffffffff1602179055508173ffffffffffffffffffffffffffffffffffffffff168173ffffffffffffffffffffffffffffffffffffffff167f8be0079c531659141344cd1fd0a4f28419497f9722a3daafe3b4186f6b6457e060405160405180910390a35050565b611bba61311f565b60008242604051602001611bcf929190614818565b6040516020818303038152906040528051906020012060001c90506001606482611bf99190614873565b611c0391906147a1565b826000019060ff16908160ff1681525050600160648083611c2491906148a4565b611c2e9190614873565b611c3891906147a1565b826020019060ff16908160ff168152505050919050565b611c69828260405180602001604052806000815250612316565b5050565b8173ffffffffffffffffffffffffffffffffffffffff168373ffffffffffffffffffffffffffffffffffffffff161415611cdc576040517f08c379a0000000000000000000000000000000000000000000000000000000008152600401611cd390614921565b60405180910390fd5b80600560008573ffffffffffffffffffffffffffffffffffffffff1673ffffffffffffffffffffffffffffffffffffffff16815260200190815260200160002060008473ffffffffffffffffffffffffffffffffffffffff1673ffffffffffffffffffffffffffffffffffffffff16815260200190815260200160002060006101000a81548160ff0219169083151502179055508173ffffffffffffffffffffffffffffffffffffffff168373ffffffffffffffffffffffffffffffffffffffff167f17307eab39ab6107e8899845ad3d59bd9653f200f220920489ca2b5937696c3183604051611dcd91906132fa565b60405180910390a3505050565b611de5848484611885565b611df184848484612371565b611e30576040517f08c379a0000000000000000000000000000000000000000000000000000000008152600401611e27906149b3565b60405180910390fd5b50505050565b606060006010600084815260200190815260200160002090506000611e6e8260000160009054906101000a900460ff1660ff166124f9565b611e8b8360000160019054906101000a900460ff1660ff166124f9565b604051602001611e9c929190614b03565b6040516020818303038152906040529050600060405180610100016040528060c4815260200161529660c491399050611ed4856124f9565b81612002611ffd600f60008a815260200190815260200160002060405180604001604052908160008201805480602002602001604051908101604052809291908181526020018280548015611f7257602002820191906000526020600020906000905b82829054906101000a900462ffffff1662ffffff1681526020019060030190602082600201049283019260010382029150808411611f375790505b5050505050815260200160018201805480602002602001604051908101604052809291908181526020018280548015611fef57602002820191906000526020600020906000905b82829054906101000a900460ff16151581526020019060010190602082600001049283019260010382029150808411611fb95790505b50505050508152505061265a565b61202f565b846040516020016120169493929190614d26565b6040516020818303038152906040529350505050919050565b60606000825114156120525760405180602001604052806000815250905061218e565b6000604051806060016040528060408152602001615256604091399050600060036002855161208191906147a1565b61208b91906148a4565b60046120979190614d9b565b67ffffffffffffffff8111156120b0576120af61357d565b5b6040519080825280601f01601f1916602001820160405280156120e25781602001600182028036833780820191505090505b509050600182016020820185865187015b8082101561214e576003820191508151603f8160121c168501518453600184019350603f81600c1c168501518453600184019350603f8160061c168501518453600184019350603f81168501518453600184019350506120f3565b505060038651066001811461216a576002811461217d57612185565b603d6001830353603d6002830353612185565b603d60018303535b50505080925050505b919050565b60007f01ffc9a7000000000000000000000000000000000000000000000000000000007bffffffffffffffffffffffffffffffffffffffffffffffffffffffff1916827bffffffffffffffffffffffffffffffffffffffffffffffffffffffff1916149050919050565b6122088383836127b4565b600073ffffffffffffffffffffffffffffffffffffffff168373ffffffffffffffffffffffffffffffffffffffff16141561224b57612246816127b9565b61228a565b8173ffffffffffffffffffffffffffffffffffffffff168373ffffffffffffffffffffffffffffffffffffffff1614612289576122888382612802565b5b5b600073ffffffffffffffffffffffffffffffffffffffff168273ffffffffffffffffffffffffffffffffffffffff1614156122cd576122c88161296f565b61230c565b8273ffffffffffffffffffffffffffffffffffffffff168273ffffffffffffffffffffffffffffffffffffffff161461230b5761230a8282612a40565b5b5b505050565b505050565b6123208383612abf565b61232d6000848484612371565b61236c576040517f08c379a0000000000000000000000000000000000000000000000000000000008152600401612363906149b3565b60405180910390fd5b505050565b60006123928473ffffffffffffffffffffffffffffffffffffffff16612c99565b156124ec578373ffffffffffffffffffffffffffffffffffffffff1663150b7a026123bb6116e6565b8786866040518563ffffffff1660e01b81526004016123dd9493929190614e3f565b6020604051808303816000875af192505050801561241957506040513d601f19601f820116820180604052508101906124169190614ea0565b60015b61249c573d8060008114612449576040519150601f19603f3d011682016040523d82523d6000602084013e61244e565b606091505b50600081511415612494576040517f08c379a000000000000000000000000000000000000000000000000000000000815260040161248b906149b3565b60405180910390fd5b805181602001fd5b63150b7a0260e01b7bffffffffffffffffffffffffffffffffffffffffffffffffffffffff1916817bffffffffffffffffffffffffffffffffffffffffffffffffffffffff1916149150506124f1565b600190505b949350505050565b60606000821415612541576040518060400160405280600181526020017f30000000000000000000000000000000000000000000000000000000000000008152509050612655565b600082905060005b6000821461257357808061255c906142dc565b915050600a8261256c91906148a4565b9150612549565b60008167ffffffffffffffff81111561258f5761258e61357d565b5b6040519080825280601f01601f1916602001820160405280156125c15781602001600182028036833780820191505090505b5090505b6000851461264e576001826125da919061476d565b9150600a856125e99190614873565b60306125f591906147a1565b60f81b81838151811061260b5761260a613faa565b5b60200101907effffffffffffffffffffffffffffffffffffffffffffffffffffffffffffff1916908160001a905350600a8561264791906148a4565b94506125c5565b8093505050505b919050565b6060600060405180602001604052806000815250905060005b8360000151518110156126fc5781600d828154811061269557612694613faa565b5b906000526020600020016126c6866000015184815181106126b9576126b8613faa565b5b6020026020010151612cbc565b6040516020016126d893929190615045565b604051602081830303815290604052915080806126f4906142dc565b915050612673565b5060005b836020015151811015612785578360200151818151811061272457612723613faa565b5b60200260200101516127725781600e828154811061274557612744613faa565b5b906000526020600020016040516020016127609291906150e3565b60405160208183030381529060405291505b808061277d906142dc565b915050612700565b50600b81600c60405160200161279d9392919061511d565b604051602081830303815290604052915050919050565b505050565b6008805490506009600083815260200190815260200160002081905550600881908060018154018082558091505060019003906000526020600020016000909190919091505550565b6000600161280f84610d11565b612819919061476d565b90506000600760008481526020019081526020016000205490508181146128fe576000600660008673ffffffffffffffffffffffffffffffffffffffff1673ffffffffffffffffffffffffffffffffffffffff168152602001908152602001600020600084815260200190815260200160002054905080600660008773ffffffffffffffffffffffffffffffffffffffff1673ffffffffffffffffffffffffffffffffffffffff168152602001908152602001600020600084815260200190815260200160002081905550816007600083815260200190815260200160002081905550505b6007600084815260200190815260200160002060009055600660008573ffffffffffffffffffffffffffffffffffffffff1673ffffffffffffffffffffffffffffffffffffffff16815260200190815260200160002060008381526020019081526020016000206000905550505050565b60006001600880549050612983919061476d565b90506000600960008481526020019081526020016000205490506000600883815481106129b3576129b2613faa565b5b9060005260206000200154905080600883815481106129d5576129d4613faa565b5b906000526020600020018190555081600960008381526020019081526020016000208190555060096000858152602001908152602001600020600090556008805480612a2457612a2361514e565b5b6001900381819060005260206000200160009055905550505050565b6000612a4b83610d11565b905081600660008573ffffffffffffffffffffffffffffffffffffffff1673ffffffffffffffffffffffffffffffffffffffff168152602001908152602001600020600083815260200190815260200160002081905550806007600084815260200190815260200160002081905550505050565b600073ffffffffffffffffffffffffffffffffffffffff168273ffffffffffffffffffffffffffffffffffffffff161415612b2f576040517f08c379a0000000000000000000000000000000000000000000000000000000008152600401612b26906151c9565b60405180910390fd5b612b388161167a565b15612b78576040517f08c379a0000000000000000000000000000000000000000000000000000000008152600401612b6f90615235565b60405180910390fd5b612b84600083836121fd565b6001600360008473ffffffffffffffffffffffffffffffffffffffff1673ffffffffffffffffffffffffffffffffffffffff1681526020019081526020016000206000828254612bd491906147a1565b92505081905550816002600083815260200190815260200160002060006101000a81548173ffffffffffffffffffffffffffffffffffffffff021916908373ffffffffffffffffffffffffffffffffffffffff160217905550808273ffffffffffffffffffffffffffffffffffffffff16600073ffffffffffffffffffffffffffffffffffffffff167fddf252ad1be2c89b69c2b068fc378daa952ba7f163c4a11628f55a4df523b3ef60405160405180910390a4612c9560008383612311565b5050565b6000808273ffffffffffffffffffffffffffffffffffffffff163b119050919050565b60606000600667ffffffffffffffff811115612cdb57612cda61357d565b5b6040519080825280601f01601f191660200182016040528015612d0d5781602001600182028036833780820191505090505b50905060005b6006811015612dd0577f3031323334353637383961626364656600000000000000000000000000000000600f826005612d4c919061476d565b6004612d589190614d9b565b8662ffffff16901c1662ffffff1660108110612d7757612d76613faa565b5b1a60f81b828281518110612d8e57612d8d613faa565b5b60200101907effffffffffffffffffffffffffffffffffffffffffffffffffffffffffffff1916908160001a9053508080612dc8906142dc565b915050612d13565b5080915050919050565b828054828255906000526020600020908101928215612e29579160200282015b82811115612e28578251829080519060200190612e1892919061313f565b5091602001919060010190612dfa565b5b509050612e3691906131c5565b5090565b828054612e4690613c0c565b90600052602060002090601f016020900481019282612e685760008555612eaf565b82601f10612e8157805160ff1916838001178555612eaf565b82800160010185558215612eaf579182015b82811115612eae578251825591602001919060010190612e93565b5b509050612ebc91906131e9565b5090565b82805482825590600052602060002090600901600a90048101928215612f5c5791602002820160005b83821115612f2b57835183826101000a81548162ffffff021916908362ffffff1602179055509260200192600301602081600201049283019260010302612ee9565b8015612f5a5782816101000a81549062ffffff0219169055600301602081600201049283019260010302612f2b565b505b509050612f6991906131e9565b5090565b82805482825590600052602060002090601f016020900481019282156130025791602002820160005b83821115612fd357835183826101000a81548160ff0219169083151502179055509260200192600101602081600001049283019260010302612f96565b80156130005782816101000a81549060ff0219169055600101602081600001049283019260010302612fd3565b505b50905061300f91906131e9565b5090565b82805461301f90613c0c565b90600052602060002090601f0160209004810192826130415760008555613088565b82601f1061305a57803560ff1916838001178555613088565b82800160010185558215613088579182015b8281111561308757823582559160200191906001019061306c565b5b50905061309591906131e9565b5090565b8280546130a590613c0c565b90600052602060002090601f0160209004810192826130c7576000855561310e565b82601f106130e057805160ff191683800117855561310e565b8280016001018555821561310e579182015b8281111561310d5782518255916020019190600101906130f2565b5b50905061311b91906131e9565b5090565b6040518060400160405280600060ff168152602001600060ff1681525090565b82805461314b90613c0c565b90600052602060002090601f01602090048101928261316d57600085556131b4565b82601f1061318657805160ff19168380011785556131b4565b828001600101855582156131b4579182015b828111156131b3578251825591602001919060010190613198565b5b5090506131c191906131e9565b5090565b5b808211156131e557600081816131dc9190613206565b506001016131c6565b5090565b5b808211156132025760008160009055506001016131ea565b5090565b50805461321290613c0c565b6000825580601f106132245750613243565b601f01602090049060005260206000209081019061324291906131e9565b5b50565b6000604051905090565b600080fd5b600080fd5b60007fffffffff0000000000000000000000000000000000000000000000000000000082169050919050565b61328f8161325a565b811461329a57600080fd5b50565b6000813590506132ac81613286565b92915050565b6000602082840312156132c8576132c7613250565b5b60006132d68482850161329d565b91505092915050565b60008115159050919050565b6132f4816132df565b82525050565b600060208201905061330f60008301846132eb565b92915050565b600081519050919050565b600082825260208201905092915050565b60005b8381101561334f578082015181840152602081019050613334565b8381111561335e576000848401525b50505050565b6000601f19601f8301169050919050565b600061338082613315565b61338a8185613320565b935061339a818560208601613331565b6133a381613364565b840191505092915050565b600060208201905081810360008301526133c88184613375565b905092915050565b6000819050919050565b6133e3816133d0565b81146133ee57600080fd5b50565b600081359050613400816133da565b92915050565b60006020828403121561341c5761341b613250565b5b600061342a848285016133f1565b91505092915050565b600073ffffffffffffffffffffffffffffffffffffffff82169050919050565b600061345e82613433565b9050919050565b61346e81613453565b82525050565b60006020820190506134896000830184613465565b92915050565b61349881613453565b81146134a357600080fd5b50565b6000813590506134b58161348f565b92915050565b600080604083850312156134d2576134d1613250565b5b60006134e0858286016134a6565b92505060206134f1858286016133f1565b9150509250929050565b613504816133d0565b82525050565b600060208201905061351f60008301846134fb565b92915050565b60008060006060848603121561353e5761353d613250565b5b600061354c868287016134a6565b935050602061355d868287016134a6565b925050604061356e868287016133f1565b9150509250925092565b600080fd5b7f4e487b7100000000000000000000000000000000000000000000000000000000600052604160045260246000fd5b6135b582613364565b810181811067ffffffffffffffff821117156135d4576135d361357d565b5b80604052505050565b60006135e7613246565b90506135f382826135ac565b919050565b600067ffffffffffffffff8211156136135761361261357d565b5b602082029050602081019050919050565b600080fd5b600080fd5b600067ffffffffffffffff8211156136495761364861357d565b5b61365282613364565b9050602081019050919050565b82818337600083830152505050565b600061368161367c8461362e565b6135dd565b90508281526020810184848401111561369d5761369c613629565b5b6136a884828561365f565b509392505050565b600082601f8301126136c5576136c4613578565b5b81356136d584826020860161366e565b91505092915050565b60006136f16136ec846135f8565b6135dd565b9050808382526020820190506020840283018581111561371457613713613624565b5b835b8181101561375b57803567ffffffffffffffff81111561373957613738613578565b5b80860161374689826136b0565b85526020850194505050602081019050613716565b5050509392505050565b600082601f83011261377a57613779613578565b5b813561378a8482602086016136de565b91505092915050565b600080604083850312156137aa576137a9613250565b5b600083013567ffffffffffffffff8111156137c8576137c7613255565b5b6137d485828601613765565b925050602083013567ffffffffffffffff8111156137f5576137f4613255565b5b61380185828601613765565b9150509250929050565b60006020828403121561382157613820613250565b5b600061382f848285016134a6565b91505092915050565b600080fd5b60008083601f84011261385357613852613578565b5b8235905067ffffffffffffffff8111156138705761386f613838565b5b60208301915083602082028301111561388c5761388b613624565b5b9250929050565b60008083601f8401126138a9576138a8613578565b5b8235905067ffffffffffffffff8111156138c6576138c5613838565b5b6020830191508360208202830111156138e2576138e1613624565b5b9250929050565b6000806000806040858703121561390357613902613250565b5b600085013567ffffffffffffffff81111561392157613920613255565b5b61392d8782880161383d565b9450945050602085013567ffffffffffffffff8111156139505761394f613255565b5b61395c87828801613893565b925092505092959194509250565b613973816132df565b811461397e57600080fd5b50565b6000813590506139908161396a565b92915050565b600080604083850312156139ad576139ac613250565b5b60006139bb858286016134a6565b92505060206139cc85828601613981565b9150509250929050565b600067ffffffffffffffff8211156139f1576139f061357d565b5b6139fa82613364565b9050602081019050919050565b6000613a1a613a15846139d6565b6135dd565b905082815260208101848484011115613a3657613a35613629565b5b613a4184828561365f565b509392505050565b600082601f830112613a5e57613a5d613578565b5b8135613a6e848260208601613a07565b91505092915050565b60008060008060808587031215613a9157613a90613250565b5b6000613a9f878288016134a6565b9450506020613ab0878288016134a6565b9350506040613ac1878288016133f1565b925050606085013567ffffffffffffffff811115613ae257613ae1613255565b5b613aee87828801613a49565b91505092959194509250565b60008060408385031215613b1157613b10613250565b5b6000613b1f858286016134a6565b9250506020613b30858286016134a6565b9150509250929050565b60008083601f840112613b5057613b4f613578565b5b8235905067ffffffffffffffff811115613b6d57613b6c613838565b5b602083019150836001820283011115613b8957613b88613624565b5b9250929050565b60008060208385031215613ba757613ba6613250565b5b600083013567ffffffffffffffff811115613bc557613bc4613255565b5b613bd185828601613b3a565b92509250509250929050565b7f4e487b7100000000000000000000000000000000000000000000000000000000600052602260045260246000fd5b60006002820490506001821680613c2457607f821691505b60208210811415613c3857613c37613bdd565b5b50919050565b7f4552433732313a20617070726f76656420717565727920666f72206e6f6e657860008201527f697374656e7420746f6b656e0000000000000000000000000000000000000000602082015250565b6000613c9a602c83613320565b9150613ca582613c3e565b604082019050919050565b60006020820190508181036000830152613cc981613c8d565b9050919050565b7f4552433732313a20617070726f76616c20746f2063757272656e74206f776e6560008201527f7200000000000000000000000000000000000000000000000000000000000000602082015250565b6000613d2c602183613320565b9150613d3782613cd0565b604082019050919050565b60006020820190508181036000830152613d5b81613d1f565b9050919050565b7f4552433732313a20617070726f76652063616c6c6572206973206e6f74206f7760008201527f6e6572206e6f7220617070726f76656420666f7220616c6c0000000000000000602082015250565b6000613dbe603883613320565b9150613dc982613d62565b604082019050919050565b60006020820190508181036000830152613ded81613db1565b9050919050565b7f4552433732313a207472616e736665722063616c6c6572206973206e6f74206f60008201527f776e6572206e6f7220617070726f766564000000000000000000000000000000602082015250565b6000613e50603183613320565b9150613e5b82613df4565b604082019050919050565b60006020820190508181036000830152613e7f81613e43565b9050919050565b7f455243373231456e756d657261626c653a206f776e657220696e646578206f7560008201527f74206f6620626f756e6473000000000000000000000000000000000000000000602082015250565b6000613ee2602b83613320565b9150613eed82613e86565b604082019050919050565b60006020820190508181036000830152613f1181613ed5565b9050919050565b7f455243373231456e756d657261626c653a20676c6f62616c20696e646578206f60008201527f7574206f6620626f756e64730000000000000000000000000000000000000000602082015250565b6000613f74602c83613320565b9150613f7f82613f18565b604082019050919050565b60006020820190508181036000830152613fa381613f67565b9050919050565b7f4e487b7100000000000000000000000000000000000000000000000000000000600052603260045260246000fd5b7f4f776e61626c653a2063616c6c6572206973206e6f7420746865206f776e6572600082015250565b600061400f602083613320565b915061401a82613fd9565b602082019050919050565b6000602082019050818103600083015261403e81614002565b9050919050565b7f446174612069732066726f7a656e000000000000000000000000000000000000600082015250565b600061407b600e83613320565b915061408682614045565b602082019050919050565b600060208201905081810360008301526140aa8161406e565b9050919050565b7f4552433732313a206f776e657220717565727920666f72206e6f6e657869737460008201527f656e7420746f6b656e0000000000000000000000000000000000000000000000602082015250565b600061410d602983613320565b9150614118826140b1565b604082019050919050565b6000602082019050818103600083015261413c81614100565b9050919050565b7f4552433732313a2062616c616e636520717565727920666f7220746865207a6560008201527f726f206164647265737300000000000000000000000000000000000000000000602082015250565b600061419f602a83613320565b91506141aa82614143565b604082019050919050565b600060208201905081810360008301526141ce81614192565b9050919050565b7f636f6c6f72732e6c656e67746820697320696e76616c69640000000000000000600082015250565b600061420b601883613320565b9150614216826141d5565b602082019050919050565b6000602082019050818103600083015261423a816141fe565b9050919050565b7f666c6167732e6c656e67746820697320696e76616c6964000000000000000000600082015250565b6000614277601783613320565b915061428282614241565b602082019050919050565b600060208201905081810360008301526142a68161426a565b9050919050565b7f4e487b7100000000000000000000000000000000000000000000000000000000600052601160045260246000fd5b60006142e7826133d0565b91507fffffffffffffffffffffffffffffffffffffffffffffffffffffffffffffffff82141561431a576143196142ad565b5b600182019050919050565b7f55524920717565727920666f72206e6f6e6578697374656e7420746f6b656e00600082015250565b600061435b601f83613320565b915061436682614325565b602082019050919050565b6000602082019050818103600083015261438a8161434e565b9050919050565b600081905092915050565b7f646174613a6170706c69636174696f6e2f6a736f6e3b6261736536342c000000600082015250565b60006143d2601d83614391565b91506143dd8261439c565b601d82019050919050565b60006143f382613315565b6143fd8185614391565b935061440d818560208601613331565b80840191505092915050565b6000614424826143c5565b915061443082846143e8565b915081905092915050565b7f4f776e61626c653a206e6577206f776e657220697320746865207a65726f206160008201527f6464726573730000000000000000000000000000000000000000000000000000602082015250565b6000614497602683613320565b91506144a28261443b565b604082019050919050565b600060208201905081810360008301526144c68161448a565b9050919050565b600081905092915050565b60008190508160005260206000209050919050565b600081546144fa81613c0c565b61450481866144cd565b9450600182166000811461451f576001811461453057614563565b60ff19831686528186019350614563565b614539856144d8565b60005b8381101561455b5781548189015260018201915060208101905061453c565b838801955050505b50505092915050565b600061457883856144cd565b935061458583858461365f565b82840190509392505050565b600061459d82866144ed565b91506145aa82848661456c565b9150819050949350505050565b7f4552433732313a206f70657261746f7220717565727920666f72206e6f6e657860008201527f697374656e7420746f6b656e0000000000000000000000000000000000000000602082015250565b6000614613602c83613320565b915061461e826145b7565b604082019050919050565b6000602082019050818103600083015261464281614606565b9050919050565b7f4552433732313a207472616e736665722066726f6d20696e636f72726563742060008201527f6f776e6572000000000000000000000000000000000000000000000000000000602082015250565b60006146a5602583613320565b91506146b082614649565b604082019050919050565b600060208201905081810360008301526146d481614698565b9050919050565b7f4552433732313a207472616e7366657220746f20746865207a65726f2061646460008201527f7265737300000000000000000000000000000000000000000000000000000000602082015250565b6000614737602483613320565b9150614742826146db565b604082019050919050565b600060208201905081810360008301526147668161472a565b9050919050565b6000614778826133d0565b9150614783836133d0565b925082821015614796576147956142ad565b5b828203905092915050565b60006147ac826133d0565b91506147b7836133d0565b9250827fffffffffffffffffffffffffffffffffffffffffffffffffffffffffffffffff038211156147ec576147eb6142ad565b5b828201905092915050565b6000819050919050565b61481261480d826133d0565b6147f7565b82525050565b60006148248285614801565b6020820191506148348284614801565b6020820191508190509392505050565b7f4e487b7100000000000000000000000000000000000000000000000000000000600052601260045260246000fd5b600061487e826133d0565b9150614889836133d0565b92508261489957614898614844565b5b828206905092915050565b60006148af826133d0565b91506148ba836133d0565b9250826148ca576148c9614844565b5b828204905092915050565b7f4552433732313a20617070726f766520746f2063616c6c657200000000000000600082015250565b600061490b601983613320565b9150614916826148d5565b602082019050919050565b6000602082019050818103600083015261493a816148fe565b9050919050565b7f4552433732313a207472616e7366657220746f206e6f6e20455243373231526560008201527f63656976657220696d706c656d656e7465720000000000000000000000000000602082015250565b600061499d603283613320565b91506149a882614941565b604082019050919050565b600060208201905081810360008301526149cc81614990565b9050919050565b7f7b2274726169745f74797065223a20224d6f756e74222c202276616c7565223a60008201527f2000000000000000000000000000000000000000000000000000000000000000602082015250565b6000614a2f602183614391565b9150614a3a826149d3565b602182019050919050565b7f7d2c207b2274726169745f74797065223a202254687275222c202276616c756560008201527f223a200000000000000000000000000000000000000000000000000000000000602082015250565b6000614aa1602383614391565b9150614aac82614a45565b602382019050919050565b7f7d00000000000000000000000000000000000000000000000000000000000000600082015250565b6000614aed600183614391565b9150614af882614ab7565b600182019050919050565b6000614b0e82614a22565b9150614b1a82856143e8565b9150614b2582614a94565b9150614b3182846143e8565b9150614b3c82614ae0565b91508190509392505050565b7f7b226e616d65223a20224d74436869636b656e20230000000000000000000000600082015250565b6000614b7e601583614391565b9150614b8982614b48565b601582019050919050565b7f222c20226465736372697074696f6e223a202200000000000000000000000000600082015250565b6000614bca601383614391565b9150614bd582614b94565b601382019050919050565b600081519050919050565b6000614bf682614be0565b614c0081856144cd565b9350614c10818560208601613331565b80840191505092915050565b7f222c2022696d616765223a2022646174613a696d6167652f7376672b786d6c3b60008201527f6261736536342c00000000000000000000000000000000000000000000000000602082015250565b6000614c78602783614391565b9150614c8382614c1c565b602782019050919050565b7f222c202261747472696275746573223a205b0000000000000000000000000000600082015250565b6000614cc4601283614391565b9150614ccf82614c8e565b601282019050919050565b7f5d7d000000000000000000000000000000000000000000000000000000000000600082015250565b6000614d10600283614391565b9150614d1b82614cda565b600282019050919050565b6000614d3182614b71565b9150614d3d82876143e8565b9150614d4882614bbd565b9150614d548286614beb565b9150614d5f82614c6b565b9150614d6b82856143e8565b9150614d7682614cb7565b9150614d828284614beb565b9150614d8d82614d03565b915081905095945050505050565b6000614da6826133d0565b9150614db1836133d0565b9250817fffffffffffffffffffffffffffffffffffffffffffffffffffffffffffffffff0483118215151615614dea57614de96142ad565b5b828202905092915050565b600082825260208201905092915050565b6000614e1182614be0565b614e1b8185614df5565b9350614e2b818560208601613331565b614e3481613364565b840191505092915050565b6000608082019050614e546000830187613465565b614e616020830186613465565b614e6e60408301856134fb565b8181036060830152614e808184614e06565b905095945050505050565b600081519050614e9a81613286565b92915050565b600060208284031215614eb657614eb5613250565b5b6000614ec484828501614e8b565b91505092915050565b7f2e00000000000000000000000000000000000000000000000000000000000000600082015250565b6000614f03600183614391565b9150614f0e82614ecd565b600182019050919050565b60008190508160005260206000209050919050565b60008154614f3b81613c0c565b614f458186614391565b94506001821660008114614f605760018114614f7157614fa4565b60ff19831686528186019350614fa4565b614f7a85614f19565b60005b83811015614f9c57815481890152600182019150602081019050614f7d565b838801955050505b50505092915050565b7f7b66696c6c3a2300000000000000000000000000000000000000000000000000600082015250565b6000614fe3600783614391565b9150614fee82614fad565b600782019050919050565b7f3b7d000000000000000000000000000000000000000000000000000000000000600082015250565b600061502f600283614391565b915061503a82614ff9565b600282019050919050565b60006150518286614beb565b915061505c82614ef6565b91506150688285614f2e565b915061507382614fd6565b915061507f82846143e8565b915061508a82615022565b9150819050949350505050565b7f7b646973706c61793a6e6f6e653b7d0000000000000000000000000000000000600082015250565b60006150cd600f83614391565b91506150d882615097565b600f82019050919050565b60006150ef8285614beb565b91506150fa82614ef6565b91506151068284614f2e565b9150615111826150c0565b91508190509392505050565b600061512982866144ed565b91506151358285614beb565b915061514182846144ed565b9150819050949350505050565b7f4e487b7100000000000000000000000000000000000000000000000000000000600052603160045260246000fd5b7f4552433732313a206d696e7420746f20746865207a65726f2061646472657373600082015250565b60006151b3602083613320565b91506151be8261517d565b602082019050919050565b600060208201905081810360008301526151e2816151a6565b9050919050565b7f4552433732313a20746f6b656e20616c7265616479206d696e74656400000000600082015250565b600061521f601c83613320565b915061522a826151e9565b602082019050919050565b6000602082019050818103600083015261524e81615212565b905091905056fe4142434445464748494a4b4c4d4e4f505152535455565758595a6162636465666768696a6b6c6d6e6f707172737475767778797a303132333435363738392b2f4d742e20436869636b656e2069732061204e465420636f6c6c656374696f6e206f6e2074686520506f6c79676f6e20636861696e2e20596f752063616e205c227061696e745c22204d742e20436869636b656e207468726f75676820746865207765627369746520616e64206d696e7420697420666f72206f6e6c7920676173206665652e204e6f206d696e74206e756d626572206c696d69742c204e6f207365636f6e646172792073616c65206665652c204e6f206c6963656e7365283d434330292ea264697066735822122077da676899fdc4b9b8a6b44acd29b7eef96b366e38d67b7628472224c26b994164736f6c634300080a0033",
  "linkReferences": {},
  "deployedLinkReferences": {}
}